:100000000C9434000C9451000C9451000C94510049
:100010000C9451000C9451000C9451000C9451001C
:100020000C9451000C9451000C9451000C9451000C
:100030000C9451000C9451000C9451000C945100FC
:100040000C9451000C9451000C9451000C945100EC
:100050000C9451000C9451000C9451000C945100DC
:100060000C9451000C94510011241FBECFEFD8E026
:10007000DEBFCDBF11E0A0E0B1E0E2E8F7E002C0F2
:1000800005900D92A630B107D9F721E0A6E0B1E0C6
:1000900001C01D92AA30B207E1F70E9410020C9431
:1000A000BF030C9400008AB1806F8AB987B1876062
:1000B00087B940988FE99FE00197F1F700C00000F1
:1000C0008BB18F7080638BB942984198409A92E0CF
:1000D0009A95F1F700C0409887EC90E00197F1F70E
:1000E00000C000008BB18F7080638BB9409A92E0A2
:1000F0009A95F1F700C0409887EC90E00197F1F7EE
:1001000000C000008FE99FE00197F1F700C00000F8
:100110008BB18F7080638BB942984198409A92E07E
:100120009A95F1F700C0409887EC90E00197F1F7BD
:1001300000C000008BB18F7080628BB9409A92E052
:100140009A95F1F700C0409887EC90E00197F1F79D
:1001500000C000008FE99FE00197F1F700C00000A8
:100160008BB18F7080628BB942984198409A92E02F
:100170009A95F1F700C0409887EC90E00197F1F76D
:1001800000C000008BB18F7080688BB9409A92E0FC
:100190009A95F1F700C0409887EC90E00197F1F74D
:1001A00000C000008FE99FE00197F1F700C0000058
:1001B0008BB18F708BB942984198409A92E09A9592
:1001C000F1F700C0409887EC90E00197F1F700C08C
:1001D00000008BB18F70806E8BB9409A92E09A9537
:1001E000F1F700C0409887EC90E00197F1F700C06C
:1001F00000008FE99FE00197F1F700C000008BB18C
:100200008F708BB942984198409A92E09A95F1F795
:1002100000C0409887EC90E00197F1F700C0000023
:100220008BB18F7080618BB9409A92E09A95F1F70B
:1002300000C0409887EC90E00197F1F700C0000003
:100240008FE99FE00197F1F700C000008BB18F703C
:100250008BB942984198409A92E09A95F1F700C084
:10026000409887EC90E00197F1F700C000008BB157
:100270008F7080668BB9409A92E09A95F1F700C032
:10028000409887EC90E00197F1F700C000008FE9FB
:100290009FE00197F1F700C0000008959F92AF9290
:1002A000BF92CF92DF92EF92FF920F931F93CF9363
:1002B000DF93EC018B016A30710564F4E880F9800A
:1002C000C7010E949E029C01FC01EE0DFF1D005D16
:1002D000008394C0CB016AE070E00E947602E62EB3
:1002E000F82E862F972F8A3091056CF4088119819A
:1002F000C8010E949E029C01FC01E00FF11F90E3E7
:100300009E0D908370C06AE070E00E947602E82E35
:10031000C80164E670E00E947602D62E862F972FE1
:100320008A3091056CF408811981C8010E949E02EF
:100330009C01FC01E00FF11F90E39D0D908348C0EC
:100340006AE070E00E947602982EC80168EE73E0C1
:100350000E947602B62EC62ED72E8AE0C816D10489
:100360006CF408811981C8010E949E029C01FC0165
:10037000E00FF11F90E39B0D90831FC0A880B98010
:10038000C5010E949E029C01FC01EA0DFB1DC801F3
:1003900060E177E20E947602605D60838FEFA81AC9
:1003A000B80AB982A882F901EA0DFB1DC6016AE00C
:1003B00070E00E947602805D808388819981019639
:1003C00099838883F901E80FF91F80E3890D808301
:1003D00088819981019699838883F901E80FF91F33
:1003E00080E38E0D8083888199810196998388832B
:1003F000F901E80FF91F80E38F0D808388819981CF
:10040000019699838883C901DF91CF911F910F9144
:10041000FF90EF90DF90CF90BF90AF909F900895A6
:10042000CF93DF93CDB7DEB72A970FB6F894DEBF30
:100430000FBECDBF81E090E09A878987CE010996F3
:100440000E9453001E821D8241E050E067E370E08D
:10045000CE0105960E944E0198878F830D811E81E3
:100460001A82198241E050E067E370E0CE01019604
:100470000E944E019C838B8301151105B1F1FC0193
:10048000080F191F81919BB1292F2F70982F907FF2
:10049000922B9BB9429A4198409A32E03A95F1F7F3
:1004A00000C04098A7ECB0E01197F1F700C0000041
:1004B0002BB12F70B0E18B9FC0011124822B8BB91F
:1004C000409A32E03A95F1F700C0409887EC90E00E
:1004D0000197F1F700C00000AFE9BFE01197F1F715
:1004E00000C00000E017F10769F6FFCF97FB072E69
:1004F00016F4009407D077FD09D00E948A0207FC09
:1005000005D03EF4909581959F4F08957095619523
:100510007F4F0895AA1BBB1B51E107C0AA1FBB1F39
:10052000A617B70710F0A61BB70B881F991F5A957F
:10053000A9F780959095BC01CD0108950F931F9365
:10054000CF93DF938230910510F482E090E0E09148
:100550000801F091090120E030E0A0E0B0E0309720
:1005600019F1408151810281138148175907C8F060
:100570008417950769F4109731F012960C9312972F
:1005800013961C9327C0009308011093090122C001
:100590002115310519F04217530718F49A01BD01CE
:1005A000EF01DF01F801DBCF21153105F9F0281B40
:1005B000390B2430310580F48A819B8161157105E6
:1005C00021F0FB019383828304C0909309018093FF
:1005D0000801FE01329644C0FE01E20FF31F819331
:1005E000919322503109398328833AC02091060122
:1005F00030910701232B41F4209102013091030136
:1006000030930701209306012091000130910101F0
:100610002115310541F42DB73EB7409104015091A9
:100620000501241B350BE0910601F0910701E2174B
:10063000F307A0F42E1B3F0B2817390778F0AC0105
:100640004E5F5F4F2417350748F04E0F5F1F5093E2
:100650000701409306018193919302C0E0E0F0E02E
:10066000CF01DF91CF911F910F910895CF93DF9329
:10067000009709F481C0FC01329713821282A09185
:100680000801B0910901109781F420813181820F16
:10069000931F20910601309107012817390751F562
:1006A000F0930701E093060167C0ED0120E030E020
:1006B000CE17DF0740F44A815B819E014115510549
:1006C000F1F0EA01F5CFD383C28340815181840FD9
:1006D000951FC817D90759F488819981840F951FF0
:1006E0000296918380838A819B81938382832115E3
:1006F000310529F4F0930901E09308013DC0E901B7
:10070000FB83EA8349915991C40FD51FEC17FD076C
:1007100061F480819181840F951F0296E90199838C
:100720008883828193819B838A83E0E0F0E0129644
:100730008D919C911397009719F0FD01DC01F7CF83
:100740008D919C9111979D012E5F3F4F820F931FBA
:1007500020910601309107012817390769F4309775
:1007600029F4109209011092080102C0138212822A
:10077000B0930701A0930601DF91CF910895F894FB
:02078000FFCFA9
:0607820000000A01200046
:00000001FF
