S01500006C616270726F6A6563746370702E73726563A6
S11300000C9434000C943E000C943E000C943E007E
S11300100C943E000C943E000C943E000C943E0064
S11300200C943E000C943E000C943E000C943E0054
S11300300C943E000C943E000C943E000C943E0044
S11300400C943E000C943E000C943E000C943E0034
S11300500C943E000C943E000C943E000C943E0024
S11300600C943E000C943E0011241FBECFEFD8E048
S1130070DEBFCDBF0E943B010C9449010C940000EB
S11300808AB1806F8AB987B1876087B940988FE950
S11300909FE00197F1F700C000008BB18F7080637F
S11300A08BB942984198409A92E09A95F1F700C032
S11300B0409887EC90E00197F1F700C000008BB105
S11300C08F7080638BB9409A92E09A95F1F700C0E3
S11300D0409887EC90E00197F1F700C000008FE9A9
S11300E09FE00197F1F700C000008BB18F7080632F
S11300F08BB942984198409A92E09A95F1F700C0E2
S1130100409887EC90E00197F1F700C000008BB1B4
S11301108F7080628BB9409A92E09A95F1F700C093
S1130120409887EC90E00197F1F700C000008FE958
S11301309FE00197F1F700C000008BB18F708062DF
S11301408BB942984198409A92E09A95F1F700C091
S1130150409887EC90E00197F1F700C000008BB164
S11301608F7080688BB9409A92E09A95F1F700C03D
S1130170409887EC90E00197F1F700C000008FE908
S11301809FE00197F1F700C000008BB18F708BB92D
S113019042984198409A92E09A95F1F700C04098AD
S11301A087EC90E00197F1F700C000008BB18F70ED
S11301B0806E8BB9409A92E09A95F1F700C040980E
S11301C087EC90E00197F1F700C000008FE99FE011
S11301D00197F1F700C000008BB18F708BB9429882
S11301E04198409A92E09A95F1F700C0409887ECC4
S11301F090E00197F1F700C000008BB18F7080612F
S11302008BB9409A92E09A95F1F700C0409887EC38
S113021090E00197F1F700C000008FE99FE001979B
S1130220F1F700C000008BB18F708BB942984198F0
S1130230409A92E09A95F1F700C0409887EC90E0DC
S11302400197F1F700C000008BB18F7080668BB905
S1130250409A92E09A95F1F700C0409887EC90E0BC
S11302600197F1F700C000008FE99FE00197F1F7D3
S113027000C000000895CF93DF9300D0CDB7DEB760
S113028081E090E09A838983CE0101960E94400028
S1090290FFCFF894FFCF3C
S9030000FC
