:100000000C9434000C9451000C9451000C94510049
:100010000C9451000C9451000C9451000C9451001C
:100020000C9451000C9451000C9451000C9451000C
:100030000C9451000C9451000C9451000C945100FC
:100040000C9451000C9451000C9451000C945100EC
:100050000C9451000C9451000C9451000C945100DC
:100060000C9451000C94510011241FBECFEFD8E026
:10007000DEBFCDBF11E0A0E0B1E0E8E7F8E002C0EC
:1000800005900D92AC33B107D9F721E0ACE3B1E0B4
:1000900001C01D92A634B207E1F70E9442020C94FF
:1000A0003A040C94000025B12F70382F307F232B99
:1000B00025B95A985998589A22E02A95F1F700C024
:1000C0005898E7ECF0E03197F1F700C0000025B157
:1000D0002F7082959295907F9827807F9827822B0A
:1000E00085B9589AF2E0FA95F1F700C0589887EC74
:1000F00090E00197F1F700C00000EFE9FFE03197D1
:10010000F1F700C00000089584B1806F84B98AB10E
:1001100087608AB958988FE99FE00197F1F700C08E
:10012000000083E390E00E94530082E390E00E948D
:10013000530088E290E00E9453008EE090E00E941D
:10014000530081E090E00E94530086E090E00E941E
:100150005300089525B12F70382F307F232B25B9F8
:100160005A9A5998589A22E02A95F1F700C058985F
:10017000E7ECF0E03197F1F700C0000025B12F70F7
:1001800082959295907F9827807F9827822B85B9BA
:10019000589AF2E0FA95F1F700C0589887EC90E091
:1001A0000197F1F700C00000EFE9FFE03197F1F7A8
:1001B00000C000000895CF93DF93EC01888188236D
:1001C00039F0219690E00E94AA0089918111FACF1E
:1001D000DF91CF9108950F931F93CF93DF93611514
:1001E000710559F08C01EC01060F171F899190E001
:1001F0000E94AA00C017D107C9F7DF91CF911F91C4
:100200000F91089581E090E00E945300089580ECE2
:1002100090E00E9453000895ECE7F0E08081806454
:100220008083EAE7F0E08081876880830895ECE7C7
:10023000F0E09081907F8F70892B8083EAE7F0E077
:10024000808180648083808186FDFDCF80917800ED
:100250009091790008950F931F93CF93DF93EC0152
:100260008A3091056CF400913C0110913D01C80168
:100270000E941903FC01E00FF11FC05DC08315C08F
:100280009B012F5F3F4F6AE070E00E94F102AB01DB
:10029000C82FB901CA010E942B01E0913C01F091E5
:1002A0003D01E80FF91FC05DC08320913C013091F2
:1002B0003D012F5F3F4F30933D0120933C01DF9183
:1002C000CF911F910F9108954AB121E030E0082E9F
:1002D00002C0220F331F0A94E2F7242B2AB985307B
:1002E000910569F08630910519F00397C9F40EC0A5
:1002F00084B5836884BD85B5826085BD089584B565
:10030000836284BD85B5826085BD0895E0EBF0E031
:10031000808183628083E1EBF0E080818260808372
:1003200008958FE087B98FEF88B9089588B18077F5
:1003300088B986B1807790E090933F0180933E0129
:100340008037910599F78FE39CE90197F1F700C099
:10035000000086B1807790E090933F0180933E014A
:100360008037910581F38FE39CE90197F1F700C095
:10037000000086B1807790E090933F0180933E012A
:100380008037910501F32EEF3DE74BE757E728B99A
:1003900086B1807790E090933F0180933E01803753
:1003A000910529F0109241011092400135C038B9F1
:1003B00086B1807790E090933F0180933E01803733
:1003C000910539F081E090E09093410180934001E4
:1003D00023C048B986B1807790E090933F01809325
:1003E0003E018037910539F082E090E09093410121
:1003F0008093400111C058B986B1807790E0909306
:100400003F0180933E018037910509F283E090E03F
:1004100090934101809340018FE788B980913E011C
:1004200090913F018036910571F480914001909147
:100430004101FC01EE0FFF1F8E0F9F1FFC01EA5FC1
:10044000FE4F808108958035910571F480914001BF
:1004500090914101FC01EE0FFF1F8E0F9F1FFC01C9
:10046000EA5FFE4F818108958091400190914101A2
:10047000FC01EE0FFF1F8E0F9F1FFC01EA5FFE4F76
:1004800082810895CF93DF931F92CDB7DEB70E948C
:1004900084000E94910186E090E00E94640185E062
:1004A00090E00E94640183E090E00E94640182E198
:1004B00091E00E94DB000E9407018EE191E00E9422
:1004C000DB000E949601823309F079C00E9402018C
:1004D0008AE291E00E94DB000E94070103E010E045
:1004E000C12CD12C0E94960189839601220F331FC3
:1004F000CC0CDD1CCC0CDD1CCC0CDD1CC20ED31EC8
:100500009601280F311D690130E3C31AD10861E05B
:1005100070E0CE0101960E94EB000150110911F725
:1005200003E010E0E12CF12C0E94960189839701F1
:10053000220F331FEE0CFF1CEE0CFF1CEE0CFF1CF9
:10054000E20EF31E9701280F311D790130E3E31A03
:10055000F10861E070E0CE0101960E94EB000150CD
:10056000110911F70F2EF3E0AF2EB12CF02D00E0A2
:1005700010E00E94960189839801220F331F000F1B
:10058000111F000F111F000F111F020F131F080F63
:10059000111D0053110961E070E0CE0101960E9427
:1005A000EB0081E0A81AB10821F78C2D809587BD5A
:1005B0008E2D809588BD00950093B400FFCF0E94DA
:1005C0000C010E94020184E391E00E94DB0086E0BE
:1005D0000E94170161E070E00E942B010E94DB0085
:1005E000FFCF97FB072E16F4009407D077FD09D0B4
:1005F0000E94050307FC05D03EF4909581959F4F1E
:100600000895709561957F4F0895AA1BBB1B51E11A
:1006100007C0AA1FBB1FA617B70710F0A61BB70B72
:10062000881F991F5A95A9F780959095BC01CD0117
:1006300008950F931F93CF93DF938230910510F4A9
:1006400082E090E0E0914401F091450120E030E04B
:10065000A0E0B0E0309719F140815181028113810F
:1006600048175907C8F08417950769F4109731F0B7
:1006700012960C93129713961C9327C00093440173
:100680001093450122C02115310519F04217530777
:1006900018F49A01BD01EF01DF01F801DBCF21154C
:1006A0003105F9F0281B390B2430310580F48A819B
:1006B0009B816115710521F0FB019383828304C046
:1006C0009093450180934401FE01329644C0FE019F
:1006D000E20FF31F819391932250310939832883CC
:1006E0003AC02091420130914301232B41F42091E3
:1006F0000201309103013093430120934201209184
:100700000001309101012115310541F42DB73EB7AB
:100710004091040150910501241B350BE0914201E9
:10072000F0914301E217F307A0F42E1B3F0B2817AB
:10073000390778F0AC014E5F5F4F2417350748F05A
:100740004E0F5F1F50934301409342018193919359
:1007500002C0E0E0F0E0CF01DF91CF911F910F9157
:100760000895CF93DF93009709F481C0FC0132977D
:1007700013821282A0914401B0914501109781F437
:1007800020813181820F931F2091420130914301DA
:100790002817390751F5F0934301E093420167C0F0
:1007A000ED0120E030E0CE17DF0740F44A815B81A5
:1007B0009E0141155105F1F0EA01F5CFD383C283C3
:1007C00040815181840F951FC817D90759F488813A
:1007D0009981840F951F0296918380838A819B81E2
:1007E000938382832115310529F4F0934501E09329
:1007F00044013DC0E901FB83EA8349915991C40F4B
:10080000D51FEC17FD0761F480819181840F951F3E
:100810000296E90199838883828193819B838A83ED
:10082000E0E0F0E012968D919C911397009719F0FB
:10083000FD01DC01F7CF8D919C9111979D012E5FF9
:100840003F4F820F931F209142013091430128179F
:10085000390769F4309729F4109245011092440148
:1008600002C013821282B0934301A0934201DF9130
:08087000CF910895F894FFCF29
:100878000000460120003132333435363738392A02
:100888003023507265737320312041444300507205
:1008980065737320322052474200525252474747ED
:0C08A8004242420056616C756520000061
:00000001FF
