S01700004763634170706C69636174696F6E312E737265635B
S11300000C9434000C9451000C9451000C94510045
S11300100C9451000C9451000C9451000C94510018
S11300200C9451000C9451000C9451000C94510008
S11300300C9451000C9451000C9451000C945100F8
S11300400C9451000C9451000C9451000C945100E8
S11300500C9451000C9451000C9451000C945100D8
S11300600C9451000C94510011241FBECFEFD8E022
S1130070DEBFCDBF11E0A0E0B1E0E2E9F3E002C0F1
S113008005900D92A231B107D9F721E0A2E1B1E0C8
S113009001C01D92A631B207E1F70E94AB010C9496
S11300A0C7010C9400008FE084B98FEF85B90895DF
S11300B085B1807F85B983B1807F90E090931301EF
S11300C080931201803F910551F483B1807F90E0C9
S11300D09093130180931201803F9105B1F32EEFA9
S11300E03DEF4BEF57EF25B983B1807F90E09093BC
S11300F0130180931201803F910529F0109215019C
S11301001092140135C035B983B1807F90E090938B
S1130110130180931201803F910539F081E090E052
S1130120909315018093140123C045B983B1807F56
S113013090E09093130180931201803F910539F070
S113014082E090E0909315018093140111C055B999
S113015083B1807F90E09093130180931201803FDC
S1130160910509F283E090E09093150180931401C6
S11301708FEF85B92FEF89EF90E0215080409040B8
S1130180E1F700C000008091120190911301803EBC
S1130190910571F48091140190911501FC01EE0F09
S11301A0FF1F8E0F9F1FFC01E050FF4F80810895B9
S11301B0803D910571F48091140190911501FC0129
S11301C0EE0FFF1F8E0F9F1FFC01E050FF4F818138
S11301D008958091140190911501FC01EE0FFF1F09
S11301E08E0F9F1FFC01E050FF4F828108952BB1B9
S11301F02F70382F307F232B2BB942984198409A87
S113020025E02A95F1F700004098EFE8F1E03197F6
S1130210F1F700C000002BB12F7082959295907F6A
S11302209827807F9827822B8BB9409AF5E0FA951E
S1130230F1F7000040988FE891E00197F1F700C0D2
S11302400000EFE3FFE13197F1F700C000000895EB
S11302508AB1806F8AB987B1876087B940988FE384
S11302609FE10197F1F700C0000083E390E00E9452
S1130270F70082E390E00E94F70088E290E00E9499
S1130280F7008EE090E00E94F70081E090E00E9489
S1130290F70086E090E00E94F70008952BB12F70DC
S11302A0382F307F232B2BB9429A4198409A25E06E
S11302B02A95F1F700004098EFE8F1E03197F1F763
S11302C000C000002BB12F7082959295907F9827E3
S11302D0807F9827822B8BB9409AF5E0FA95F1F745
S11302E0000040988FE891E00197F1F700C000000A
S11302F0EFE3FFE13197F1F700C000000895CF93D9
S1130300DF93EC018881882339F0219690E00E94E4
S11303104E0189918111FACFDF91CF9108950F9306
S11303201F93CF93DF936115710559F08C01EC0194
S1130330060F171F899190E00E944E01C017D10744
S1130340C9F7DF91CF911F910F91089581E090E05B
S11303500E94F7000895CF93DF931F92CDB7DEB7C5
S11303600E9428010E9453008CE091E00E947F01CA
S11303700E945800898361E070E0CE0101960E94DA
S11303808F0189818332A1F70E94A601EDCFF894F1
S1050390FFCF99
S11303923132333435363738392A3023546573745D
S10503A2200035
S9030000FC
