:100000000C9434000C9451000C9451000C94510049
:100010000C9451000C9451000C9451000C9451001C
:100020000C9451000C9451000C9451000C9451000C
:100030000C9451000C9451000C9451000C945100FC
:100040000C9451000C9451000C9451000C945100EC
:100050000C9451000C9451000C9451000C945100DC
:100060000C9451000C94510011241FBECFEFD8E026
:10007000DEBFCDBF11E0A0E0B1E0E4EDFFE002C0E3
:1000800005900D92AA3FB107D9F722E0AAEFB1E09F
:1000900001C01D92A631B207E1F70E94E9040C9459
:1000A000E8070C94000048B19C01207F3327359568
:1000B0002795359527953595279535952795942F2F
:1000C000907F292B28B9589859985A9A22E02A9556
:1000D000F1F700C05A98E7ECF0E03197F1F700C073
:1000E000000098B1907F8F70892B88B95A9AF2E0FE
:1000F000FA95F1F700C05A9887EC90E00197F1F774
:1001000000C00000EFE9FFE03197F1F700C0000008
:10011000089587B18F6087B98AB187608AB95A9884
:100120008FE99FE00197F1F700C0000083E390E0C2
:100130000E94530082E390E00E94530088E290E026
:100140000E9453008EE090E00E94530086E090E011
:100150000E94530081E090E00E945300089548B14E
:100160009C01207F33273595279535952795359523
:10017000279535952795942F907F292B28B9589A44
:1001800059985A9A22E02A95F1F700C05A98E7EC5C
:10019000F0E03197F1F700C0000098B1907F8F70C8
:1001A000892B88B95A9AF2E0FA95F1F700C05A986B
:1001B00087EC90E00197F1F700C00000EFE9FFE065
:1001C0003197F1F700C000000895CF93DF93EC0161
:1001D0008881882339F0219690E00E94AF008991B0
:1001E0008111FACFDF91CF9108950F931F93CF9391
:1001F000DF936115710559F08C01EC01060F171F93
:10020000899190E00E94AF00C017D107C9F7DF9134
:10021000CF911F910F91089581E090E00E945300CB
:10022000089580EC90E00E9453000895ECE7F0E020
:10023000808180648083EAE7F0E080818768808342
:100240000895ECE7F0E09081907F8F70892B808398
:10025000EAE7F0E0808180648083808186FDFDCFC5
:10026000809178009091790008950F931F93CF9318
:10027000DF93EC018A3091056CF40091FA01109142
:10028000FB01C8010E94C706FC01E00FF11FC05D21
:10029000C08315C09B012F5F3F4F6AE070E00E9452
:1002A0009F06AB01C82FB901CA010E943501E09138
:1002B000FA01F091FB01E80FF91FC05DC0832091A6
:1002C000FA013091FB012F5F3F4F3093FB012093E8
:1002D000FA01DF91CF911F910F91089561E070E0D5
:1002E0000E9435011092FB011092FA0108952F929D
:1002F0003F924F925F926F927F928F929F92AF92B6
:10030000BF92CF92DF92EF92FF920F931F93CF9302
:10031000DF93CDB7DEB7E0970FB6F894DEBF0FBE20
:10032000CDBF2B013C0149015A016701780180E0F2
:1003300090E0A0E8BFE389839A83AB83BC834D82BE
:100340005E826F827886C986DA86EB86FC862D8788
:100350003E874F87588BA3019201C301B2010E94CF
:100360003206698B7A8B8B8B9C8BA7019601C70118
:10037000B6010E9432066D8B7E8B8F8B988FA50104
:100380009401C501B4010E943206698F7A8F8B8F68
:100390009C8FA7019601C301B2010E9432066DA78E
:1003A0007EA78FA798AB9B01AC01C501B4010E9449
:1003B00032066D8F7E8F8F8F98A38DA59EA5AFA5DA
:1003C000B8A989A39AA3ABA3BCA3A5019401C301B7
:1003D000B2010E9432066DA37EA38FA398A7A50148
:1003E0009401C701B6010E94320669A77AA78BA7BC
:1003F0009CA70F2EF2E1EF2EF1E0FF2EF02DDE0193
:1004000011966D010EE311E03D01812C912C5401F8
:10041000F70161917191819191917F01D3012D91AA
:100420003D914D915D913D010E9432069B01AC01D1
:10043000C501B4010E9402054B015C01E016F10602
:1004400039F70F2EFAE6EF2EF1E0FF2EF02D160110
:10045000412C512C3201F80161917191819191915E
:100460008F01D1012D913D914D915D911D010E9412
:1004700032069B01AC01C301B2010E9402052B01AF
:100480003C010E151F0539F706E911E01DA61EA651
:100490001FA618AAF70161917191819191917F0135
:1004A000D6012D913D914D915D916D010E943206D5
:1004B0009B01AC016DA57EA58FA598A90E940205A0
:1004C0006DA77EA78FA798ABE016F10619F7ECEFA2
:1004D000F1E080829182A282B38244825582668258
:1004E0007782DC01CB0180879187A287B387CF0118
:1004F000E0960FB6F894DEBF0FBECDBFDF91CF916F
:100500001F910F91FF90EF90DF90CF90BF90AF9031
:100510009F908F907F906F905F904F903F902F9023
:1005200008954AB121E030E0082E02C0220F331FA7
:100530000A94E2F7242B2AB98530910569F08630B8
:10054000910519F00397C9F40EC084B5836884BD82
:1005500085B5826085BD089584B5836284BD85B507
:10056000826085BD0895E0EBF0E080818362808346
:10057000E1EBF0E080818260808308958FE084B9B0
:100580008FEF85B9089585B1807785B983B180777C
:1005900090E090930D0280930C028037910599F7BB
:1005A0008FE39CE90197F1F700C0000083B18077E9
:1005B00090E090930D0280930C028037910581F3B7
:1005C0008FE39CE90197F1F700C0000083B18077C9
:1005D00090E090930D0280930C028037910501F317
:1005E0002EEF3DE74BE757E725B983B1807790E0E1
:1005F00090930D0280930C028037910529F01092A0
:1006000011021092100235C035B983B1807790E0A5
:1006100090930D0280930C028037910539F081E0B0
:1006200090E0909311028093100223C045B983B1EA
:10063000807790E090930D0280930C0280379105B3
:1006400039F082E090E0909311028093100211C083
:1006500055B983B1807790E090930D0280930C029E
:100660008037910509F283E090E090931102809326
:1006700010028FE785B980910C0290910D028036AF
:10068000910571F48091100290911102FC01EE0F1E
:10069000FF1F8E0F9F1FFC01EA5FFE4F80810895B0
:1006A0008035910571F48091100290911102FC0146
:1006B000EE0FFF1F8E0F9F1FFC01EA5FFE4F81812F
:1006C00008958091100290911102FC01EE0FFF1F1E
:1006D0008E0F9F1FFC01EA5FFE4F82810895CF922B
:1006E000DF92EF92FF920F931F93CF93DF93CDB7DB
:1006F000DEB729970FB6F894DEBF0FBECDBF86E0F8
:1007000090E00E94910285E090E00E94910283E0D7
:1007100090E00E9491020E940C0186E991E00E9403
:10072000E5000E94110100E010E00E94C3028A323D
:1007300059F40E940C0186E991E00E94E5000E94B4
:10074000110100E010E0F1CFE1E0F0E0EC0FFD1F5F
:10075000E00FF11F808361E070E0CF010E94F5009F
:100760000F5F1F4F0930110504F3FE013196CE01D2
:10077000049600E010E0E12CF12CC12CD12C219149
:10078000A601440F551FCC0CDD1CCC0CDD1CCC0C81
:10079000DD1CC40ED51EC20ED11C20E3C21AD10826
:1007A0009701220F331FEE0CFF1CEE0CFF1CEE0C0A
:1007B000FF1CE20EF31E2281E20EF11C20E3E21A7E
:1007C000F1089801220F331F000F111F000F111F96
:1007D000000F111F020F131F2581020F111D00535F
:1007E0001109E817F90759F680EA91E00E94E5003F
:1007F000C094C7BCE094E8BC00950093B4000E948C
:10080000C3028332E1F717BC18BC1092B4002996DA
:100810000FB6F894DEBF0FBECDBFDF91CF911F9111
:100820000F91FF90EF90DF90CF900895CF93DF93DB
:100830000E9416010E940C0187EA91E00E94E500E7
:1008400084E00E942101EC010E946E010E94E500FB
:10085000CE01DF91CF9108958F929F92AF92BF9278
:10086000CF92DF92EF92FF920F931F93CF93DF937C
:100870000E940C018EEA91E00E94E5000E94C302F2
:100880000E94160490930B0280930A020E941101A9
:100890008DEB91E00E94E5000E94C3020E941604C5
:1008A00090930F0280930E020E9411018EEC91E052
:1008B0000E94E5000E94C3020E9416049093090260
:1008C000809308020E940C0180910A0290910B0211
:1008D0000E946E010E94E5008EED91E00E94E5000D
:1008E00080910E0290910F020E946E010E94E5001D
:1008F0008EED91E00E94E50080910802909109023E
:100900000E946E010E94E500609108027091090248
:10091000072E000C880B990B0E94A6056B017C0129
:1009200060910E0270910F02072E000C880B990B3C
:100930000E94A6054B015C0160910A0270910B02B6
:10094000072E000C880B990B0E94A60587017601E3
:10095000A50194010E947701EC010E9411016881B8
:1009600079818A819B810E946E05CB010E946E0174
:100970000E94E5008EED91E00E94E5006C817D8192
:100980008E819F810E946E05CB010E946E010E94A4
:10099000E5008EED91E00E94E500688579858A8505
:1009A0009B850E946E05CB010E946E010E94E500AE
:1009B0000E94C3028332E1F7DF91CF911F910F9123
:1009C000FF90EF90DF90CF90BF90AF909F908F906F
:1009D00008950E9489000E94BE0281EE91E00E946B
:1009E000E5000E9411018DEE91E00E94E5000E9459
:1009F000C302823319F40E946F03EBCF0E942C04D0
:100A0000E8CF5058BB27AA270E9419050C94F80577
:100A10000E94EA0538F00E94F10520F039F49F3F6A
:100A200019F426F40C94E7050EF4E095E7FB0C941A
:100A3000E105E92F0E94090658F3BA176207730708
:100A40008407950720F079F4A6F50C942B060EF494
:100A5000E0950B2EBA2FA02D0B01B90190010C01CE
:100A6000CA01A0011124FF27591B99F0593F50F4E6
:100A7000503E68F11A16F040A22F232F342F44273E
:100A8000585FF3CF469537952795A795F040539536
:100A9000C9F77EF41F16BA0B620B730B840BBAF006
:100AA0009150A1F0FF0FBB1F661F771F881FC2F771
:100AB0000EC0BA0F621F731F841F48F48795779585
:100AC0006795B795F7959E3F08F0B0CF9395880F3F
:100AD00008F09927EE0F9795879508950E94750560
:100AE0006894B1110C942C0608950E94110688F0A8
:100AF0009F5798F0B92F9927B751B0F0E1F0660FE2
:100B0000771F881F991F1AF0BA95C9F714C0B13022
:100B100091F00E942B06B1E008950C942B06672FEC
:100B2000782F8827B85F39F0B93FCCF38695779551
:100B30006795B395D9F73EF490958095709561953A
:100B40007F4F8F4F9F4F0895E89409C097FB3EF465
:100B500090958095709561957F4F8F4F9F4F99230A
:100B6000A9F0F92F96E9BB279395F6958795779588
:100B70006795B795F111F8CFFAF4BB0F11F460FF48
:100B80001BC06F5F7F4F8F4F9F4F16C0882311F0A0
:100B900096E911C0772321F09EE8872F762F05C0B4
:100BA000662371F096E8862F70E060E02AF09A954F
:100BB000660F771F881FDAF7880F9695879597F944
:100BC000089597F99F6780E870E060E008959FEFCF
:100BD00080EC089500240A941616170618060906D4
:100BE000089500240A9412161306140605060895A3
:100BF000092E0394000C11F4882352F0BB0F40F42B
:100C0000BF2B11F460FF04C06F5F7F4F8F4F9F4F6A
:100C1000089557FD9058440F551F59F05F3F71F0EC
:100C20004795880F97FB991F61F09F3F79F0879553
:100C30000895121613061406551FF2CF4695F1DFDC
:100C400008C0161617061806991FF1CF869571056C
:100C5000610508940895E894BB2766277727CB01A0
:100C600097F908950E9445060C94F8050E94EA053C
:100C700038F00E94F10520F0952311F00C94E10565
:100C80000C94E70511240C942C060E94090670F3BD
:100C9000959FC1F3950F50E0551F629FF001729F21
:100CA000BB27F00DB11D639FAA27F00DB11DAA1F30
:100CB000649F6627B00DA11D661F829F2227B00D7D
:100CC000A11D621F739FB00DA11D621F839FA00D08
:100CD000611D221F749F3327A00D611D231F849F58
:100CE000600D211D822F762F6A2F11249F575040AF
:100CF0009AF0F1F088234AF0EE0FFF1FBB1F661F2A
:100D0000771F881F91505040A9F79E3F510580F0F2
:100D10000C94E1050C942C065F3FE4F3983ED4F369
:100D2000869577956795B795F795E7959F5FC1F796
:100D3000FE2B880F911D9695879597F9089597FB3F
:100D4000072E16F4009407D077FD09D00E94B30651
:100D500007FC05D03EF4909581959F4F08957095BE
:100D600061957F4F0895AA1BBB1B51E107C0AA1FC5
:100D7000BB1FA617B70710F0A61BB70B881F991F3C
:100D80005A95A9F780959095BC01CD0108950F93D0
:100D90001F93CF93DF938230910510F482E090E0AF
:100DA000E0911402F091150220E030E0A0E0B0E004
:100DB000309719F1408151810281138148175907F9
:100DC000C8F08417950769F4109731F012960C93C8
:100DD000129713961C9327C00093140210931502C8
:100DE00022C02115310519F04217530718F49A0152
:100DF000BD01EF01DF01F801DBCF21153105F9F06D
:100E0000281B390B2430310580F48A819B816115C0
:100E1000710521F0FB019383828304C09093150236
:100E200080931402FE01329644C0FE01E20FF31FCC
:100E30008193919322503109398328833AC02091BC
:100E4000120230911302232B41F4209102013091C0
:100E5000030130931302209312022091000130917C
:100E600001012115310541F42DB73EB74091040130
:100E700050910501241B350BE0911202F0911302F1
:100E8000E217F307A0F42E1B3F0B2817390778F061
:100E9000AC014E5F5F4F2417350748F04E0F5F1FC0
:100EA00050931302409312028193919302C0E0E0A9
:100EB000F0E0CF01DF91CF911F910F910895CF9373
:100EC000DF93009709F481C0FC01329713821282EC
:100ED000A0911402B0911502109781F42081318104
:100EE000820F931F209112023091130228173907A5
:100EF00051F5F0931302E093120267C0ED0120E078
:100F000030E0CE17DF0740F44A815B819E01411536
:100F10005105F1F0EA01F5CFD383C28340815181BD
:100F2000840F951FC817D90759F488819981840FB8
:100F3000951F0296918380838A819B81938382830C
:100F40002115310529F4F0931502E09314023DC0F8
:100F5000E901FB83EA8349915991C40FD51FEC172E
:100F6000FD0761F480819181840F951F0296E9014C
:100F700099838883828193819B838A83E0E0F0E078
:100F800012968D919C911397009719F0FD01DC0149
:100F9000F7CF8D919C9111979D012E5F3F4F820F4E
:100FA000931F20911202309113022817390769F418
:100FB000309729F4109215021092140202C0138285
:100FC0001282B0931302A0931202DF91CF91089581
:040FD000F894FFCFC3
:100FD4000000160220003132333435363738392ACE
:100FE40030235D320346A46B65C1057146C1F3E24B
:100FF40042C1E93BB3BA477A90BACC6CD2BA67FA29
:10100400FAB7693DB43C1C8EBA3C82429D3CC14255
:101014003D46AC488AC1D55991C191A0A0C19CAAB2
:10102400BF394EECA43BA3DB4C396C9725B8FF0DBC
:10103400A43C9B6F043D26C7C73CA4E1B945D43505
:101044002DC116D522C12B12C8C044E1B0B9AEF8E7
:10105400963B8BD3333B12F5A8B75CB2563C3E2A81
:101064008E3C022B813B5252524747474242420038
:1010740066696E6973680056616C7565200050720C
:10108400657373206B65792C2072656400507265FA
:101094007373206B65792C20677265656E005072DE
:1010A400657373206B65792C20626C7565002C2048
:1010B40000507265737320312041444300507265BF
:0A10C40073732032205247420000EF
:00000001FF
