S01700004763634170706C69636174696F6E312E737265635B
S11300000C9434000C9451000C9451000C94510045
S11300100C9451000C9451000C9451000C94510018
S11300200C9451000C9451000C9451000C94510008
S11300300C9451000C9451000C9451000C945100F8
S11300400C9451000C9451000C9451000C945100E8
S11300500C9451000C9451000C9451000C945100D8
S11300600C9451000C94510011241FBECFEFD8E022
S1130070DEBFCDBF11E0A0E0B1E0EEEBF3E002C0E3
S113008005900D92A831B107D9F721E0A8E1B1E0BC
S113009001C01D92AC31B207E1F70E94C4010C9477
S11300A0DD010C94000048B19C01207F3327359575
S11300B027953595279535952795342F317E232B14
S11300C028B9589859985A9A22E02A95F1F700C00D
S11300D05A98E7ECF0E03197F1F700C0000028B13E
S11300E0880F991F8E71922F917E892B88B95A9A05
S11300F0F2E0FA95F1F700C05A9887EC90E0019786
S1130100F1F700C00000EFE9FFE03197F1F700C01C
S11301100000089587B18E6187B98AB187608AB972
S11301205A988FE99FE00197F1F700C0000083E33C
S113013090E00E94530082E390E00E94530088E222
S113014090E00E9453008EE090E00E94530081E012
S113015090E00E94530086E090E00E9453000895CE
S113016048B19C01207F33273595279535952795F0
S113017035952795342F317E232B28B9589A5998D1
S11301805A9A22E02A95F1F700C05A98E7ECF0E079
S11301903197F1F700C0000028B1880F991F8E71C4
S11301A0922F917E892B88B95A9AF2E0FA95F1F749
S11301B000C05A9887EC90E00197F1F700C0000066
S11301C0EFE9FFE03197F1F700C000000895CF9305
S11301D0DF93EC018881882339F0219690E00E9416
S11301E0B00089918111FACFDF91CF9108950F93D7
S11301F01F93CF93DF936115710559F08C01EC01C6
S1130200060F171F899190E00E94B000C017D10714
S1130210C9F7DF91CF911F910F91089580EC90E081
S11302200E94530008958FE084B98FEF85B9089533
S113023085B1807785B983B1807790E09093190177
S1130240809318018037910599F78FE39CE9019712
S1130250F1F700C0000083B1807790E0909319011A
S1130260809318018037910581F38FE39CE901970E
S1130270F1F700C0000083B1807790E090931901FA
S1130280809318018037910501F32EEF3DE74BE78A
S113029057E725B983B1807790E090931901809353
S11302A018018037910529F010921B0110921A0150
S11302B035C035B983B1807790E09093190180936C
S11302C018018037910539F081E090E090931B018B
S11302D080931A0123C045B983B1807790E090934D
S11302E01901809318018037910539F082E090E07C
S11302F090931B0180931A0111C055B983B1807783
S113030090E090931901809318018037910509F2C8
S113031083E090E090931B0180931A018FE785B9E5
S113032080911801909119018036910571F48091A2
S11303301A0190911B01FC01EE0FFF1F8E0F9F1FEE
S1130340FC01E050FF4F808108958035910571F4E0
S113035080911A0190911B01FC01EE0FFF1F8E0F7B
S11303609F1FFC01E050FF4F8181089580911A0185
S113037090911B01FC01EE0FFF1F8E0F9F1FFC01CC
S1130380E050FF4F82810895CF93DF931F92CDB742
S1130390DEB70E948A000E9413018CE091E00E9463
S11303A0E7000E940E010E941801898361E070E059
S11103B0CE0101960E94F700F6CFF894FFCF1D
S11303BE3132333435363738392A30235072657337
S10B03CE732031204144430077
S9030000FC
