S00E000073656E736F722E737265637C
S11300000C9434000C943E000C943E000C943E007E
S11300100C943E000C943E000C943E000C943E0064
S11300200C943E000C943E000C943E000C943E0054
S11300300C943E000C943E000C943E000C943E0044
S11300400C943E000C943E000C943E000C943E0034
S11300500C943E000C943E000C943E000C943E0024
S11300600C943E000C943E0011241FBECFEFD8E048
S1130070DEBFCDBF0E9440000C94BA000C94000077
S11300808FE084B980EF85B98FEF8AB92FEF40E70D
S113009052E0215040405040E1F700C0000080EFA2
S11300A085B983B1807F803F89F360E070E05DC0F3
S11300B080EF85B920E030E00DC045B181E090E0EB
S11300C0022E02C0880F991F0A94E2F7842B85B987
S11300D02F5F3F4F2617370784F3FB0131969F01AB
S11300E00DC045B181E090E0022E02C0880F991F37
S11300F00A94E2F7842B85B92F5F3F4F24303105F2
S113010084F383B1482F50E0807F803F41F5BF01E5
S11301102CC09A01082E02C0359527950A94E2F75F
S113012020FF02C001961DC0049721E030E0A90120
S113013002C0440F551F8A95E2F702C0220F331FF5
S11301406A95E2F7242B2BB95FEF80E792E05150D8
S113015080409040E1F700C000001BB897CF84E0D6
S113016090E088309105ACF291CF643071050CF4C5
S10B01709FCF8CCFF894FFCF60
S9030000FC
