S02100006B6579706164207769746820736576656E207365676D656E742E7372656355
S11300000C942A000C9447000C9447000C9447006D
S11300100C9447000C9447000C9447000C94470040
S11300200C9447000C9447000C9447000C94470030
S11300300C9447000C9447000C9447000C94470020
S11300400C9447000C9447000C9447000C94470010
S11300500C94470011241FBECFE5D4E0DEBFCDBF12
S113006010E0A0E6B0E0E8E0F2E002C005900D92F6
S1130070A037B107D9F720E0A0E7B0E001C01D9296
S1130080A437B207E1F70E9498000C9402010C9483
S1130090000080917000909171008F709927909367
S11300A07100809370000E9761F4E0917200F091FA
S11300B07300EE0FFF1FEE0FFF1FE05AFF4F80810A
S11300C085BB80917000909171000D9761F4E0916F
S11300D07200F0917300EE0FFF1FEE0FFF1FE05A46
S11300E0FF4F818185BB80917000909171000B97C7
S11300F061F4E0917200F0917300EE0FFF1FEE0FB8
S1130100FF1FE05AFF4F828185BB80917000909160
S11301107100079761F4E0917200F0917300EE0FA3
S1130120FF1FEE0FFF1FE05AFF4F838185BB089529
S11301308FEF84BB15BA80EF87BB8FE088BB0F2E8F
S1130140FFEEAF2EF02D0F2EFFEDBF2EF02D0F2E54
S1130150FFEBCF2EF02D0F2EFFE7DF2EF02D0F2E0D
S1130160F3E0EF2EF12CF02D02E010E0C1E0D0E03E
S113017086B390E090937100809370000F97C1F361
S1130180A8BA86B390E090937100809370008F3E7C
S1130190910531F010927300109272000E94490090
S11301A0B8BA86B390E090937100809370008F3D4D
S11301B0910531F0D0937300C09372000E944900FE
S11301C0C8BA86B390E090937100809370008F3B1F
S11301D0910531F010937300009372000E9449005E
S11301E0D8BA86B390E090937100809370008F37F3
S11301F0910509F4BDCFF0927300E09272000E9461
S10B02004900B6CFF894FFCFCA
S11302080001020304050607080910111213141546
S9030000FC
