:100000000C9434000C9449000C9449000C94490061
:100010000C9449000C9449000C9449000C9449003C
:100020000C9449000C9449000C9449000C9449002C
:100030000C9449000C9449000C9449000C9449001C
:100040000C9449000C9449000C9449000C9449000C
:100050000C9449000C9449000C9449000C944900FC
:100060000C9449000C94490011241FBECFEFD8E036
:10007000DEBFCDBF11E0A0E0B1E0EEE5F2E002C0EE
:1000800005900D92A830B107D9F70E9411010C9488
:100090002D010C940000282F207F30E03595279506
:1000A000359527953595279528B99BB19E7F9BB9A6
:1000B0009BB19D7F9BB99BB194609BB922E02A952F
:1000C000F1F700C09BB19B7F9BB9E7ECF0E0319763
:1000D000F1F700C00000F0E18F9FC0011124959559
:1000E0008795959587959595879588B98BB1846007
:1000F0008BB922E02A95F1F700C08BB18B7F8BB9C9
:1001000087EC90E00197F1F700C000000895282FD8
:10011000207F30E03595279535952795359527959E
:1001200028B99BB191609BB99BB19D7F9BB99BB155
:1001300094609BB922E02A95F1F700C09BB19B7FA8
:100140009BB920E1829FC0011124959587959595D3
:1001500087959595879588B98BB184608BB982E036
:100160008A95F1F700C08BB18B7F8BB987EC90E05B
:100170000197F1F700C0000008958FEF87B98AB9A1
:100180008BB18B7F8BB983E30E944B0082E30E948B
:100190004B0088E20E944B008EE00E944B0081E001
:1001A0000E944B008FE99FE00197F1F700C000002B
:1001B00086E00E944B000895CF93DF9300D0CDB727
:1001C000DEB790E8998390EC9A83E62FF0E03197C0
:1001D00021E030E02C0F3D1FE20FF31F9081890FCB
:1001E00081500E944B0087EC90E00197F1F700C02E
:1001F00000000F900F90DF91CF9108950F931F9300
:10020000CF938C01C0E003C00E948700CF5FF8014C
:10021000EC0FF11D80818111F7CFCF911F910F91CC
:1002200008950E94BD0061E081E00E94DC0080E052
:1002300091E00E94FE002FEF89E698E12150804076
:100240009040E1F700C0000061E08AE00E94DC001D
:0E02500083E091E00E94FE00FFCFF894FFCF04
:08025E004849004865790000E1
:00000001FF
