S00B00004C61622E737265630A
S11300000C9434000C9451000C9451000C94510045
S11300100C9451000C9451000C9451000C94510018
S11300200C9451000C9451000C9451000C94510008
S11300300C9451000C9451000C9451000C945100F8
S11300400C9451000C9451000C9451000C945100E8
S11300500C9451000C9451000C9451000C945100D8
S11300600C9451000C94510011241FBECFEFD8E022
S1130070DEBFCDBF11E0A0E0B1E0EEE6F3E002C0E8
S113008005900D92AC30B107D9F721E0ACE0B1E0B6
S113009001C01D92A532B207E1F70E942E010C9413
S11300A0B5010C94000092E098B98BB918B88FE5AB
S11300B09AEE0197F1F700C00000089593E098B913
S11300C08BB981E088B98FE59AEE0197F1F700C00A
S11300D000000895CF93DF93EC018881882331F0E9
S11300E021960E945E0089918111FBCFDF91CF910F
S11300F0089580912201909123018F709927909304
S11301002301809322010E9719F5E0912001F091CB
S11301102101E050FF4F808180932401ACE0B1E0E5
S11301205296ED91FC915397EE0FFF1FE45FFE4F43
S113013090E09183808352968D919C915397019680
S113014053969C938E93529784E291E00E946A00A6
S113015080912201909123010D9719F5E0912001DE
S1130160F0912101E050FF4F838180932401ACE0A2
S1130170B1E05296ED91FC915397EE0FFF1FE45FAF
S1130180FE4F90E09183808352968D919C9153977A
S1130190019653969C938E93529784E291E00E9429
S11301A06A0080912201909123010B9719F5E09147
S11301B02001F0912101E050FF4F868180932401BA
S11301C0ACE0B1E05296ED91FC915397EE0FFF1F16
S11301D0E45FFE4F90E09183808352968D919C91D1
S11301E05397019653969C938E93529784E291E091
S11301F00E946A008091220190912301079769F57A
S1130200E0912001F0912101E050FF4F818580931E
S11302102401833241F481E00E94530010921F01B3
S113022010921E010895ACE0B1E05296ED91FC915C
S11302305397EE0FFF1FE45FFE4F90E0918380839E
S113024052968D919C915397019653969C938E93BD
S1130250529784E291E00E946A00089580EF84B985
S11302608FE085B98FEF87B98AB988E30E9453007C
S11302708FE00E94530081E00E94530080E80E94B6
S11302805300CCE0D1E00F2EFFEE8F2EF02D0F2E79
S1130290FFED9F2EF02D0F2EFFEBAF2EF02D0F2E26
S11302A0FFE7BF2EF02D0F2EF3E0CF2ED12CF02D33
S11302B06894EE24E1F8F12C01E010E08A899B892E
S11302C0099709F44AC083B190E090932301809385
S11302D022010F97C1F385B883B190E09093230175
S11302E0809322018F3E910531F0109221011092EA
S11302F020010E94790095B883B190E09093230186
S1130300809322018F3D910531F0109321010093D8
S113031020010E947900A5B883B190E09093230155
S1130320809322018F3B910531F0F0922101E092FC
S113033020010E947900B5B883B190E09093230125
S1130340809322018F37910509F4B8CFD09221010F
S1130350C09220010E947900B1CF81E00E94530035
S111036080E191E00E946A00A9CFF894FFCFDB
S10F036E3132333435363738392A302325
S9030000FC
