:100000000C9434000C9451000C9451000C94510049
:100010000C9451000C9451000C9451000C9451001C
:100020000C9451000C948B000C9451000C945100D2
:100030000C9451000C9451000C9451000C945100FC
:100040000C9453000C9451000C9451000C945100EA
:100050000C9451000C94B9000C9451000C94510074
:100060000C9451000C94510011241FBECFEFD8E026
:10007000DEBFCDBF11E0A0E0B1E0E0ECF5E002C0F2
:1000800005900D92A231B107D9F721E0A2E1B1E0CC
:1000900001C01D92A631B207E1F70E942E020C9416
:1000A000DE020C9400001F920F920FB60F921124E3
:1000B0002F933F934F935F936F937F938F939F9370
:1000C000AF93BF93EF93FF9360911201709113016F
:1000D00080911401909115010E94490267BD6091C1
:1000E00012017091130180911401909115010E94E9
:1000F000490268BDFF91EF91BF91AF919F918F91A0
:100100007F916F915F914F913F912F910F900FBE13
:100110000F901F9018951F920F920FB60F921124F7
:100120002F933F934F935F936F937F938F939F93FF
:10013000AF93BF93EF93FF936091120170911301FE
:1001400080911401909115010E9449026093B400BE
:10015000FF91EF91BF91AF919F918F917F916F919F
:100160005F914F913F912F910F900FBE0F901F9075
:1001700018951F920F920FB60F9211242F933F9351
:100180004F935F936F937F938F939F93AF93BF939F
:10019000EF93FF93609178007091790080E090E098
:1001A0000E947802609312017093130180931401EE
:1001B00090931501FF91EF91BF91AF919F918F9116
:1001C0007F916F915F914F913F912F910F900FBE53
:1001D0000F901F901895282F207F30E03595279598
:1001E000359527953595279528B99BB19E7F9BB965
:1001F0009BB19D7F9BB99BB194609BB922E02A95EE
:10020000F1F700C09BB19B7F9BB9E7ECF0E0319721
:10021000F1F700C00000F0E18F9FC0011124959517
:100220008795959587959595879588B98BB18460C5
:100230008BB922E02A95F1F700C08BB18B7F8BB987
:1002400087EC90E00197F1F700C000000895282F97
:10025000207F30E03595279535952795359527955D
:1002600028B99BB191609BB99BB19D7F9BB99BB114
:1002700094609BB922E02A95F1F700C09BB19B7F67
:100280009BB920E1829FC001112495958795959592
:1002900087959595879588B98BB184608BB982E0F5
:1002A0008A95F1F700C08BB18B7F8BB987EC90E01A
:1002B0000197F1F700C0000008958FEF87B98AB960
:1002C0008BB18B7F8BB983E30E94EB0082E30E94AA
:1002D000EB0088E20E94EB008EE00E94EB0081E0E0
:1002E0000E94EB008FE99FE00197F1F700C000004A
:1002F00086E00E94EB000895CF93DF9300D0CDB746
:10030000DEB790E8998390EC9A83E62FF0E031977E
:1003100021E030E02C0F3D1FE20FF31F9081890F89
:1003200081500E94EB0087EC90E00197F1F700C04C
:1003300000000F900F90DF91CF9108950E94270148
:1003400008958FE084B980EF85B908952FEF81EE8D
:1003500094E0215080409040E1F700C0000080EF21
:1003600085B983B1807F803F19F480E090E00895E3
:100370000895CF93DF93CDB7DEB760970FB6F894AB
:10038000DEBF0FBECDBF80E1E2E0F1E0DE011196FD
:1003900001900D928A95E1F760E070E052C080EF25
:1003A00085B920E030E00DC045B181E090E0022E3B
:1003B00002C0880F991F0A94E2F7842B85B92F5F3A
:1003C0003F4F2617370784F3FB0131969F010DC07D
:1003D00045B181E090E0022E02C0880F991F0A9477
:1003E000E2F7842B85B92F5F3F4F2430310584F32A
:1003F00083B1482F50E0807F803FE9F4BF0121C0E6
:100400009A01082E02C0359527950A94E2F720FF3D
:1004100002C0019612C00497880F991F880F991F78
:1004200021E030E02C0F3D1F820F931FFC01E60FEF
:10043000F71F80810AC084E090E08830910504F3C2
:10044000BF01643071050CF4AACF60960FB6F89422
:10045000DEBF0FBECDBFDF91CF9108950E94A101F5
:100460000E945D010E94A601892BE1F30E94B9015F
:100470000E949E0161E0809100010E947C018091B8
:100480000001909101010196909301018093000178
:10049000E9CF0E94BD0288F09F5798F0B92F9927A5
:1004A000B751B0F0E1F0660F771F881F991F1AF05F
:1004B000BA95C9F714C0B13091F00E94D702B1E0EB
:1004C00008950C94D702672F782F8827B85F39F0EA
:1004D000B93FCCF3869577956795B395D9F73EF4F8
:1004E00090958095709561957F4F8F4F9F4F0895A0
:1004F000E89409C097FB3EF49095809570956195BE
:100500007F4F8F4F9F4F9923A9F0F92F96E9BB2773
:100510009395F695879577956795B795F111F8CFEF
:10052000FAF4BB0F11F460FF1BC06F5F7F4F8F4F5A
:100530009F4F16C0882311F096E911C0772321F050
:100540009EE8872F762F05C0662371F096E8862FE8
:1005500070E060E02AF09A95660F771F881FDAF73F
:10056000880F9695879597F9089557FD9058440FF1
:10057000551F59F05F3F71F04795880F97FB991F02
:1005800061F09F3F79F087950895121613061406BF
:10059000551FF2CF4695F1DF08C01616170618064C
:1005A000991FF1CF86957105610508940895E89427
:1005B000BB2766277727CB0197F90895F894FFCFDB
:1005C00002003734314E383532303936333D2F2A38
:0205D0002D2BD1
:00000001FF
